:100000000C9446050C946E050C946E050C946E05CC
:100010000C946E050C946E050C946E050C946E0594
:100020000C946E050C946E050C946E050C946E0584
:100030000C946E050C946E050C946E050C946E0574
:100040000C94CD140C946E050C946E050C946E05F6
:100050000C946E050C946E050C946E050C946E0554
:100060000C9417150C946E0500000000003E5B4FC9
:100070005B3E3E6B4F6B3E1C3E7C3E1C183C7E3C08
:10008000181C577D571C1C5E7F5E1C00183C180016
:10009000FFE7C3E7FF0018241800FFE7DBE7FF30A6
:1000A000483A060E2629792926407F050507407F14
:1000B00005253F5A3CE73C5A7F3E1C1C08081C1C87
:1000C0003E7F14227F22145F5F005F5F06097F017D
:1000D0007F006689956A606060606094A2FFA29468
:1000E00008047E040810207E201008082A1C080836
:1000F0001C2A08081E101010100C1E0C1E0C303884
:100100003E3830060E3E0E06000000000000005F84
:1001100000000007000700147F147F14242A7F2AA0
:100120001223130864623649562050000807030062
:10013000001C2241000041221C002A1C7F1C2A08AE
:10014000083E080800807030000808080808000011
:1001500060600020100804023E5149453E00427F85
:10016000400072494949462141494D331814127FD4
:100170001027454545393C4A494931412111090774
:100180003649494936464949291E000014000000F5
:1001900040340000000814224114141414140041C7
:1001A00022140802015909063E415D594E7C121184
:1001B000127C7F494949363E414141227F414141BC
:1001C0003E7F494949417F090909013E4141517337
:1001D0007F0808087F00417F41002040413F017FA8
:1001E000081422417F404040407F021C027F7F0470
:1001F00008107F3E4141413E7F090909063E4151B9
:10020000215E7F09192946264949493203017F01A8
:10021000033F4040403F1F2040201F3F4038403FA9
:10022000631408146303047804036159494D4300BF
:100230007F4141410204081020004141417F0402F6
:10024000010204404040404000030708002054548D
:1002500078407F284444383844444428384444286B
:100260007F385454541800087E090218A4A49C78BE
:100270007F0804047800447D40002040403D007F1A
:100280001028440000417F40007C047804787C08FA
:100290000404783844444438FC18242418182424CE
:1002A00018FC7C08040408485454542404043F44B3
:1002B000243C4040207C1C2040201C3C4030403CE2
:1002C00044281028444C9090907C4464544C440042
:1002D00008364100000077000000413608000201A6
:1002E0000204023C2623263C1EA1A161123A404092
:1002F000207A38545455592155557941225454780F
:1003000042215554784020545579400C1E527212A7
:100310003955555559395454545939555454580030
:1003200000457C410002457D420001457C407D1234
:1003300011127DF0282528F07C5455450020545496
:100340007C547C0A097F4932494949323A44444441
:100350003A324A4848303A4141217A3A424020787C
:10036000009DA0A07D3D4242423D3D4040403D3C7D
:1003700024FF2424487E4943662B2FFC2F2BFF09A2
:1003800029F620C0887E0903205454794100004496
:100390007D413048484A32384040227A007A0A0A81
:1003A000727D0D19317D2629292F282629292926F4
:1003B00030484D4020380808080808080808382F39
:1003C00010C8ACBA2F102834FA00007B00000814C3
:1003D0002A142222142A14085500550055AA55AA99
:1003E00055AAFF55FF55FF000000FF00101010FF39
:1003F00000141414FF001010FF00FF1010F010F094
:10040000141414FC001414F700FF0000FF00FF1484
:1004100014F404FC141417101F10101F101F1414D0
:10042000141F00101010F0000000001F101010101A
:100430001F10101010F010000000FF10101010100E
:1004400010101010FF10000000FF140000FF00FF4C
:1004500000001F10170000FC04F4141417101714E8
:1004600014F404F40000FF00F7141414141414140A
:10047000F700F7141414171410101F101F1414147D
:10048000F4141010F010F000001F101F0000001FE7
:1004900014000000FC140000F010F01010FF10FF1A
:1004A000141414FF141010101F00000000F010FFAF
:1004B000FFFFFFFFF0F0F0F0F0FFFFFF0000000093
:1004C00000FFFF0F0F0F0F0F3844443844FC4A4A17
:1004D0004A347E02020606027E027E0263554941CC
:1004E000633844443C04407E201E2006027E020203
:1004F00099A5E7A5991C2A492A1C4C7201724C3017
:100500004A4D4D303048784830BC625A463D3E49ED
:100510004949007E0101017E2A2A2A2A2A44445F91
:10052000444440514A444040444A51400000FF0185
:1005300003E080FF000008086B6B08361236243693
:10054000060F090F060000181800000010100030F8
:1005500040FF0101001F01011E00191D1712003C80
:100560003C3C3C0000000000000103070F1F3F7FE0
:100570000080C0E0F0F8FCFEDB40A4A62EAF200017
:10058000A1C8D300408DAED580A800006000000057
:100590000000000000000000000000E0000000007B
:1005A00000000000000000000001E000000000006A
:1005B000000000000000000001F00000000000004A
:1005C0000000000000000003F00000000000000038
:1005D00000000000000007F0000000000000000024
:1005E000000000000007F80000000000000000000C
:1005F000000000000FF800000003C0007E000001B2
:10060000E0007F0FF800000003C000FE000001E0E2
:1006100000FFEFF800000003C000FE000001E00052
:10062000FFFFF800000003C000F00000000F007F93
:10063000FE7FC0000003C000F00000000F003FFE7E
:100640007FF83FF1FBCFFCFEF3BC3DEFE01FFE7FE8
:10065000FF7FFBFFDFFEFEFFBC3DEFE01FC6FFFF9D
:100660007FFBFFDFFEFEFFBC3DEFE00FE3C7FE7840
:100670007BC3DE1EF0FFBC3DEF0007FF87FC787BED
:10068000C3DE1EF0F83C3DEF0001FFFFF0007BC32E
:10069000C01EF0F03C3DEF0001F37FE03FFBC3CF15
:1006A000FEF0F03C3DEF0003E33F807FFBC3DFFE45
:1006B000F0F03C3DEF0007E73C00787BC3DE1EF026
:1006C000F03C3DEF0007FFBE00787BC3DE1EF0F07C
:1006D0003C3DEF0007FFFE00787BC3DE1EF0F03CE0
:1006E0003DEF000FFFFE007FFBFFDFFEF0F03FFD60
:1006F000EFE00FFFFF007FFBFFDFFEF0F03FFDEFBD
:10070000E00FF9FF003E79F9CF9EF0F01F3DE7E0E2
:100710001FF1FF0000000000000000000000001FAB
:1007200080FF007FFFFFFFFFFFFFFFFFFFE01C00D8
:100730007F007FFFFFFFFEB46D888D18E000001F73
:10074000007FFFFFFFFE95AD7DB577E000000F0055
:100750007FFFFFFFFEA5AD9D8D19E0000006007F25
:10076000FFFFFFFEB5ADEDB57EE00000000000012B
:100770008000000000000000000003800000000076
:10078000000000000007C0000000000000000000A2
:1007900007C00000000000000000000FC0000000C3
:1007A0000000000000001FE000000000000000004A
:1007B000001FE00000000000000000003FE000001B
:1007C000000000000000003FF000000000000000FA
:1007D00000007FF0000000000000001FF87FF00024
:1007E0000000000000003FFE7FF00000000000005D
:1007F000003FFF7FF0000000000000001FFFFBE053
:10080000000000000000000FFFF9FFC00000000022
:1008100000000FFFF9FFF800000000000007FFF1E3
:10082000FFFF00000000000003FC73FFFF800000DA
:1008300000000001FE3FFFFF80000000000000FFFD
:100840001E0FFF000000000000007FFE1FFC0000E4
:1008500000000000003FFFFFF80000000000000063
:100860000FDFFFE0000000000000001F19FFC000C4
:100870000000000000003F3CFF00000000000000FE
:10088000007E7CF800000000000000007FFE7C007D
:1008900000000000000000FFFFFC0000000000005E
:1008A0000000FFFFFE0000000000000000FFFFFE50
:1008B0000000000000000001FFEFFE00000000004B
:1008C000000001FFCFFE0000000000000003FF0752
:1008D000FE0000000000000003FC07FE0000000016
:1008E00000000003F003FE00000000000000018093
:1008F00000FE000000000000000000007E0000007C
:10090000000000000000003E0000000000000000A9
:1009100000000C000000000000078000FC00000345
:10092000C0000000078001FC000003C000000007B9
:100930008001FC000003C0000000078001E000000F
:10094000001E000000078001E00000001E007FE3A1
:10095000F79FF9FDE7787BDFC0FFF7FFBFFDFDFFE5
:10096000787BDFC0FFF7FFBFFDFDFF787BDFC0F0C6
:10097000F787BC3DE1FF787BDE00F0F787BC3DE107
:10098000F0787BDE0000F787803DE1E0787BDE00D9
:100990007FF7879FFDE1E0787BDE00FFF787BFFDF3
:1009A000E1E0787BDE00F0F787BC3DE1E0787BDEBC
:1009B00000F0F787BC3DE1E0787BDE00F0F787BC14
:1009C0003DE1E0787BDE00FFF7FFBFFDE1E07FFB6C
:1009D000DFC0FFF7FFBFFDE1E07FFBDFC07CF3F38B
:1009E0009F3DE1E03E7BCFC0000000000000000022
:1009F000000000FFFFFFFFFFFFFFFFFFFFC0FFFF43
:100A0000FFFFFD68DB111A31C0FFFFFFFFFD2B5A0E
:100A1000FB6AEFC0FFFFFFFFFD4B5B3B1A33C0FFDC
:100A2000FFFFFFFD6B5BDB6AFDC0000000002400E0
:100A300027002A0000000000250028002B000000ED
:100A40000000230026002900040404040404040414
:100A50000202020202020303030303030102040869
:100A60001020408001020408102001020408102018
:100A7000000000080002010000030407000000005D
:100A8000000000002200FF213616331B11241FBE78
:100A9000CFEFD8E0DEBFCDBF11E0A0E0B1E0ECE7E2
:100AA000F9E302C005900D92AC3DB107D9F722E001
:100AB000ACEDB1E001C01D92A83FB207E1F715E02F
:100AC000C5E4D5E004C02197FE010E947A1BC4341E
:100AD000D107C9F70E9491160C94B11C0C94000028
:100AE0000895833081F028F4813099F08230A9F0A4
:100AF00008958730A9F08830C9F08430B1F480912E
:100B000080008F7D03C0809180008F77809380006C
:100B1000089584B58F7784BD089584B58F7DFBCF0C
:100B20008091B0008F778093B00008958091B000DD
:100B30008F7DF9CFCF93DF93282F30E0F901E05973
:100B4000F54F8491F901E45AF54FD491F901E85B2E
:100B5000F54FC491CC23A1F081110E947105EC2FB7
:100B6000F0E0EE0FFF1FE25CF54FA591B491EC9120
:100B7000ED2381E090E009F480E0DF91CF910895CA
:100B800080E090E0FACF1F93CF93DF93282F30E0DF
:100B9000F901E059F54F8491F901E45AF54FD491E8
:100BA000F901E85BF54FC491CC23A9F0162F811110
:100BB0000E947105EC2FF0E0EE0FFF1FEC5CF54F8B
:100BC000A591B4918FB7F894EC91111108C0D0950C
:100BD000DE23DC938FBFDF91CF911F910895DE2B31
:100BE000F8CFCF93DF9390E0FC01E45AF54F2491C6
:100BF000885B954FFC0184918823C9F090E0880FB1
:100C0000991FFC01E65DF54FA591B491FC01EC5CE8
:100C1000F54FC591D49161110DC09FB7F8948C9197
:100C2000209582238C938881282328839FBFDF917E
:100C3000CF910895623051F49FB7F8943C91822F80
:100C4000809583238C93E8812E2BEFCF8FB7F89478
:100C5000EC912E2B2C938FBFEACF3FB7F894809165
:100C6000A0029091A102A091A202B091A30226B588
:100C7000A89B05C02F3F19F00196A11DB11D3FBFD4
:100C8000BA2FA92F982F8827BC01CD01620F711DA3
:100C9000811D911D42E0660F771F881F991F4A959D
:100CA000D1F708958F929F92AF92BF92CF92DF9229
:100CB000EF92FF924B015C010E942D066B017C01BB
:100CC0000E942D066C197D098E099F09683E7340AC
:100CD00081059105A8F321E0821A9108A108B108C5
:100CE00088EEC80E83E0D81EE11CF11C811491042B
:100CF000A104B10429F7FF90EF90DF90CF90BF904F
:100D0000AF909F908F90089508950895AF92BF92ED
:100D1000CF92DF92EF92FF920F931F93CF93DF93C7
:100D20006C017B018B01040F151FEB015E01AE18F6
:100D3000BF08C017D10759F06991D601ED91FC9118
:100D40000190F081E02DC6010995892B79F7C50145
:100D5000DF91CF911F910F91FF90EF90DF90CF9097
:100D6000BF90AF900895EF92FF920F931F93CF9390
:100D7000DF93EC01EC80FD806E157F050CF070C0F8
:100D800057FF04C0240F351F50E040E08E819F8143
:100D9000FA01E20FF31F8E179F071CF49C01241B1E
:100DA000350B121613060CF05BC0922F842F86951C
:100DB000869586958E9DD0018F9DB00D11246A0F6A
:100DC0007B1FAF8DB8A1A60FB71F477049F188E010
:100DD000841B482F682F70E0FB01E059FA4FE49123
:100DE000281708F063C0621B71092FEF30E002C0C2
:100DF000359527956A95E2F7E2230130110539F020
:100E0000B0F10230110561F58C91E82702C08C9198
:100E1000E82BEC93941720F12C813D81A20FB31F96
:100E2000E92FE41BE83078F00230110521F58E2F10
:100E30009C9190959C932C813D81A20FB31F88506B
:100E40008830B0F7E770EE2359F0F0E0E859FA4F38
:100E5000E49101301105F9F010F10230110519F19A
:100E6000DF91CF911F910F91FF90EF900895E09542
:100E70008C91E823CECF81E00115110509F480E0C3
:100E800081959E2F8C932C813D81A20FB31F98508A
:100E90009830C0F7D7CF8C91E82BEC93E1CFE09559
:100EA0008C91E823FACF8C91E827F7CF0130110518
:100EB00009F4ADCFE0F20230110509F4A5CFAE0D73
:100EC000BF1DAECF0F931F93CF93DF9377FF04C067
:100ED000260F371F70E060E0DC011496CD91DC91A5
:100EE000FB01E20FF31FCE17DF071CF49E01261B48
:100EF000370B121613064CF5FA0157FD3796A3E08F
:100F0000F595E795AA95E1F7EC9FD001ED9FB00D1F
:100F1000FC9FB00D11246A0F7B1FDC015F96ED91E1
:100F2000FC91E60FF71F4770552781E090E001C064
:100F3000880F4A95EAF7482F0130110559F0A8F0BB
:100F40002E0F3F1F02301105E1F0DF91CF911F916D
:100F50000F9108952E0F3F1FE217F307B1F3819110
:100F6000DF011197842B8C93F7CF80952E0F3F1FB5
:100F7000E217F30751F39191DF01119798239C93A6
:100F8000F7CFE217F30709F38191DF011197842767
:100F90008C93F7CF0F931F93FA01DC0156964C9177
:100FA00056974230E9F04330A1F1413061F5149693
:100FB0004D915C91DA01AE1BBF0BFD01E21BF30BFF
:100FC00077FD0BC0DC0116964D915C916417750797
:100FD00024F4AB01BF010E9462071F910F91089595
:100FE00014964D915C91DA01A61BB70BBD016150BF
:100FF0007109DC0116964D915C91DA01AE1BBF0BB5
:10100000FD01E21BF30B77FDE8CFAF010E94B306B1
:10101000E4CF16964D915C91DA01A61BB70BBD018A
:1010200061507109CDCF0F931F93FA01DC015696E1
:101030004C9156974230A9F0433091F1413019F567
:1010400014964D915C91DA01AE1BBF0BFD013197F7
:10105000F7FD04C0AB01BF010E94B3061F910F91C1
:10106000089514964D915C91DA01A61BB70BBD0152
:10107000DC0116964D915C91DA01AE1BBF0BFD01B0
:101080003197621B730BF7FDE9CFDC0116964D918A
:101090005C91E417F50714F7AF010E946207DECFF9
:1010A00016964D915C91DA01A61BB70BBD01621B30
:1010B000730BCECFFC0177FD64C0808591856817E6
:1010C00079070CF05EC057FD5CC082859385481798
:1010D00059070CF056C086898230B1F0833029F16F
:1010E000813041F484819581841B950BAB01BC0157
:1010F000615071092130310509F108F443C02230F3
:10110000310509F463C0089584819581DC01A61B33
:10111000B70BBD016150710986819781DC01A41B69
:10112000B50BAD0141505109E5CF86819781861BF2
:10113000970BBA01AC0141505109DCCFCA0157FDF0
:101140000796A3E095958795AA95E1F7A481B581C7
:101150008A9F90018B9F300D9A9F300D1124620F52
:10116000731F078CF0A1E02DE60FF71F477055277E
:1011700021E030E001C0220F4A95EAF78081822BFE
:1011800080830895CA0157FD079633E095958795AA
:101190003A95E1F7A481B5818A9F90018B9F300D2C
:1011A0009A9F300D1124620F731F078CF0A1E02D60
:1011B000E60FF71F4770552781E090E001C0880FC8
:1011C0004A95EAF7809590818923DACFCA0157FDC5
:1011D000079623E0959587952A95E1F7A481B58137
:1011E0008A9F90018B9F300D9A9F300D1124620FC2
:1011F000731F078CF0A1E02DE60FF71F47705527EE
:1012000021E030E001C0220F4A95EAF78081822771
:10121000B7CF08958EBD00000DB407FEFDCF8EB58B
:1012200008958CBD9DBD08950895FC016370668B83
:101230008481958126813781613039F0633029F0CE
:101240009187808733872287089531872087938706
:10125000828708952F923F924F925F926F927F9272
:101260008F929F92AF92BF92CF92DF92EF92FF92B6
:101270000F931F93CF93DF93CDB7DEB76A970FB667
:10128000F894DEBF0FBECDBF9A8F898F7A836983B2
:101290004A01D22E18870F833701BC2CDC015996E6
:1012A0002D913C915A972115310509F015C11896D9
:1012B0008D919C911997681779070CF0D7C11A96F0
:1012C0008D919C91481759070CF0D0C14C2C512C92
:1012D000B6E0CB9E600D711D11247C876B871616BE
:1012E00017060CF0C3C1EA2DF0E0FA87E98793E016
:1012F000EE0FFF1F9A95E1F7F88BEF87CF01840F70
:10130000951F181619060CF0B1C1A98DBA8D589603
:101310008C91811104C0BFEABD1508F4D394A98D46
:10132000BA8DED91FC9111970284F385E02DCD01EA
:101330000995B5E0DB9EC0011124E981FA81FC83A7
:10134000EB83312C212C9C0128593F4F388F2F8B58
:101350004A2D50E05E8B4D8BEF89F88DE20DF31D29
:1013600044919E828D82D12CC12C69817A81620D3B
:10137000731D7A8B698B842F90E09C8B8B8BE98D0E
:10138000FA8DA081B18140FF82C0F1E0BF126FC031
:10139000AF126DC01C96ED91FC912F813885A40190
:1013A0004C0D5D1D69897A89898D9A8D0995EB8926
:1013B000FC89F595E7954E2F5FEFC51AD50A6D812B
:1013C0007E818D899E89680F791F7E836D8398E069
:1013D000C916D10481F6AFEF2A1A3A0AEB81FC81D3
:1013E000E40DF51DFC83EB83F5E02F16310409F0C5
:1013F000B3CF2F81388526153705B9F0A98DBA8D61
:10140000ED91FC91B1E0BB1257C0AB1255C06981A0
:101410007A816B5F7F4F0088F189E02D830128E09E
:1014200030E0A401898D9A8D0995A98DBA8DED9131
:10143000FC9111970688F789E02DCD016A960FB6C9
:10144000F894DEBF0FBECDBFDF91CF911F910F91FA
:10145000FF90EF90DF90CF90BF90AF909F908F90D4
:101460007F906F905F904F903F902F9009941E96C1
:10147000ED91FC91EF80F88409851A8592014D81E8
:101480005E816B817C81898D9A8D099590CF2F81AA
:1014900038852615370509F48ACF31E0B31207C025
:1014A000A31205C01C96ED91FC91930178CF1E9676
:1014B000ED91FC917301E0CF6B857C856419750912
:1014C0000684F785E02D73010F8518899201A40128
:1014D000898D9A8D0995A9CFF90134969491329707
:1014E00045915491D91AB7E0DB9E400D511D11244E
:1014F000F901259134913C8B2B8BFA012590349086
:10150000FA013296749031963491398B3296649008
:101510003196449041E04C1518F04A1508F07FC010
:10152000662D062C000C770B7C836B83842D042C9A
:10153000000C990B9E838D83A98DBA8DED91FC9142
:1015400011970284F385E02DCD010995512CD12C02
:10155000C12CEA2DF0E0FA87E9872B2D30E03C879B
:101560002B87A401440D511D47FC5A95588F4F8B72
:1015700069817A81660D711D67FC7A957E876D871A
:101580007989C71608F051CF2C2D30E04D815E814E
:10159000420F531FA985BA854A9FC0014B9F900DEA
:1015A0005A9F900D1124FC01E80DF91DF88BEF876F
:1015B000852D612C4F89588D420F531F5E8B4D8BAB
:1015C000671408F050C044244394480E877041F4D7
:1015D000C1010196EB89FC89E20DF31DD4901C0139
:1015E000D7FE19C0A98DBA8DED91FC91662D70E0E2
:1015F000B1E0BB1219C0AB1217C02D853E85620F3A
:10160000731F0484F585E02D2F8138854D895E890F
:10161000898D9A8D0995DD0C6394842DD1CF1E821E
:101620001D821C821B8288CF4B815C81640F751FD9
:10163000AB85BC856A9FC0016B9F900D7A9F900D12
:10164000112469817A81680F791F0684F785E02D5E
:10165000EF80F88409851A859D014F855889898D09
:101660009A8D0995D8CF570CC3948ACF6A960FB636
:10167000F894DEBF0FBECDBFDF91CF911F910F91C8
:10168000FF90EF90DF90CF90BF90AF909F908F90A2
:101690007F906F905F904F903F902F9008958F9222
:1016A0009F92AF92CF92EF92FF920F931F93CF939F
:1016B000DF93EC01262F898D9A8D009709F051C098
:1016C0006A30D1F41D861C868D8948E0849F900184
:1016D00011248E859F85820F931F9F878E8781E0BF
:1016E00090E0DF91CF911F910F91FF90EF90CF90FD
:1016F000AF909F908F9008956D3089F3CC88AD881E
:101700008F898823C1F08C859D8536E0C39E800D2E
:10171000911D1124488559854817590764F44E8551
:101720005F851D861C8638E0A39EC0011124840FAE
:10173000951F9F878E87EA88FB88088919894E85BF
:101740005F856C857D85CE010E942A092C898C8558
:101750009D8546E0249F800D911D11249D878C87D7
:10176000BECF6A3069F41D861C86FC013896E49170
:101770002D898E859F85E29F800D911D1124ADCF0F
:101780006D3009F4ACCFFC0134963491631708F442
:10179000A6CF3296E491E61708F4A1CFFC01329669
:1017A00085909490462F431B342F47E0349F800C44
:1017B000911C1124F401329634913196E491332333
:1017C000A9F1EE2399F1CC88F4013596E491AD8826
:1017D0004F89442301F10E2E000CFF0BE30FF11D86
:1017E000CE9EA001CF9E500D11246C857D85460FA5
:1017F000571F68857985641775076CF44E855F857A
:101800001D861C86FC013896E491AE9E400D511D4C
:1018100011245F874E87EA88FB88088919894E85DD
:101820005F856C857D85CE010E942A09F40134967E
:10183000E4912C898C859D85E29F800D911D11245A
:101840008DCF6F927F928F929F92AF92BF92CF92E5
:10185000DF92EF92FF920F931F93CF93DF93EC01F0
:101860006B015A0139014801E881F9810284F3854D
:10187000E02D0995E881F9810288F389E02D87013F
:101880009301A501B601CE010995A501480D591D89
:1018900041505109E881F9810288F389E02D9301D3
:1018A000B601CE010995E881F9810088F189E02D22
:1018B0009401A501B601CE010995C60CD71CB6014D
:1018C00061507109E881F9810088F189E02D940166
:1018D000A501CE010995E881F9810688F789E02DF7
:1018E000CE01DF91CF911F910F91FF90EF90DF908C
:1018F000CF90BF90AF909F908F907F906F90099402
:101900006F927F928F929F92AF92BF92CF92DF920F
:10191000EF92FF920F931F93CF93DF935C01EB0144
:101920006A01490138018701DC01ED91FC916217E0
:10193000730719F5641675062CF0962D872D3A015C
:10194000C92ED82E9601261937092F5F3F4F048CD8
:10195000F58DE02DA301BE01C5010995DF91CF9161
:101960001F910F91FF90EF90DF90CF90BF90AF90BD
:101970009F908F907F906F9008954615570591F432
:101980002617370724F0892D4B01C22FD82F9E012F
:10199000281939092F5F3F4F068CF78DE02DA601DE
:1019A000B401DACF0284F385E02D0995D501ED91DC
:1019B000FC910488F589E02D83019401A601BE0104
:1019C000C5010995D501ED91FC910688F789E02DB7
:1019D000C501DF91CF911F910F91FF90EF90DF90A4
:1019E000CF90BF90AF909F908F907F906F90099411
:1019F000EF92FF920F931F93DC011A960D911C91A9
:101A00001B9718962D913C911997ED91FC9100A090
:101A1000F1A1E02D7B0150E040E070E060E009952D
:101A20001F910F91FF90EF9008954F925F926F92E8
:101A30007F928F929F92AF92BF92CF92DF92EF925E
:101A4000FF920F931F93CF93DF936C012B015A01E9
:101A500039014801DC01ED91FC910284F385E02D10
:101A60000995E201640C751CD601ED91FC91C61537
:101A7000D7055CF40088F189E02D87019401A50168
:101A8000BE01C60109952196EFCF0688F789E02DA2
:101A9000C601DF91CF911F910F91FF90EF90DF90E2
:101AA000CF90BF90AF909F908F907F906F905F90FE
:101AB0004F9009948F929F92AF92BF92CF92DF92F4
:101AC000EF92FF920F931F93CF93DF93EC015B0193
:101AD0004A016901E881F9810284F385E02D0995C5
:101AE00095012C0D3D1D21503109E881F9810488B3
:101AF000F589E02D78018401A401B501CE01099595
:101B0000E881F9810688F789E02DCE01DF91CF9138
:101B10001F910F91FF90EF90DF90CF90BF90AF900B
:101B20009F908F9009948F929F92AF92BF92CF9285
:101B3000DF92EF92FF920F931F93CF93DF93EC010D
:101B40005B014A0169017801E881F9810284F3852A
:101B5000E02D0995C80CD91C860101501109E881B6
:101B6000F9810488F589E02D9501A401B501CE0124
:101B70000995E881F9810688F789E02DCE01DF918A
:101B8000CF911F910F91FF90EF90DF90CF90BF907A
:101B9000AF909F908F900994EF92FF920F931F93B5
:101BA000DC01ED91FC9100A0F1A1E02D09951F91C0
:101BB0000F91FF90EF9008950F931F93DC01ED912B
:101BC000FC91068CF78DE02D09951F910F910895DA
:101BD0000F931F93DC01ED91FC91048CF58DE02DAA
:101BE00009951F910F910895DC01ED91FC910084FE
:101BF000F185E02D09943F924F925F926F927F9210
:101C00008F929F92AF92BF92CF92DF92EF92FF920C
:101C10000F931F93CF93DF935C017B014A0169010E
:101C2000390187E0680E711C93E0759467949A956A
:101C3000E1F72B01400E511E10E000E0312CD0E006
:101C4000C0E0CE0187709927330C892B59F4FE012F
:101C500083E0F595E7958A95E1F7E00FF11FE80D30
:101C6000F91D349037FE0AC021E030E0A701B5012C
:101C70006C0F7D1F84EB92E00E94F40D2196CC1630
:101C8000DD06F9F68FEFE81AF80A060D171DE414C1
:101C9000F504A9F6DF91CF911F910F91FF90EF907E
:101CA000DF90CF90BF90AF909F908F907F906F907C
:101CB0005F904F903F9008952F923F924F925F9286
:101CC0006F927F928F929F92AF92BF92CF92DF924C
:101CD000EF92FF920F931F93CF93DF9300D000D02A
:101CE00000D0CDB7DEB73C016A013E832D83FC8274
:101CF000EB825801A41AB50AB7FE03C0B194A194AF
:101D0000B1088D809E80861A970A97FE03C0919431
:101D1000819491088A149B045CF0902F812F0D818F
:101D20001E819D838E839C2D8D2D6B01692F782FB5
:101D30000C151D055CF09D818E817E836D83692F5E
:101D4000782F902F812F8601C92ED82E1601201AA8
:101D5000310A2B012D813E81421A530A57FE03C0DE
:101D6000519441945108710137FE03C03FEFE31ACB
:101D7000F30AF594E7948D819E81861797075CF5A9
:101D8000A1E0B0E0BA83A983C016D1064CF1D3011B
:101D9000ED91FC910484F585E02D2B813C81A80117
:101DA0006D817E818A149B041CF04D815E81B80197
:101DB000C3010995E418F508F7FE0AC02D813E819C
:101DC00089819A81280F391F3E832D83E20CF31CF1
:101DD0000F5F1F4FD9CF2FEF3FEF3A832983D4CF27
:101DE00026960FB6F894DEBF0FBECDBFDF91CF9120
:101DF0001F910F91FF90EF90DF90CF90BF90AF9029
:101E00009F908F907F906F905F904F903F902F901A
:101E10000895089520914202260F3327331F21325F
:101E20003105ECF420916602FC0190E080E0243062
:101E300069F082E00895A09142022191AC014E5DCB
:101E40005D4FA40FB52FB11D2C930196861798F303
:101E500080914202680F6093420280E0089581E021
:101E600008951092660281E08093680210926702E2
:101E700061E082E10E94C30561E083E10E94C30545
:101E8000E9EBF0E080818E7F808380818D7F80838D
:101E900088E48093B80085E48093BC000895CF93D4
:101EA000DF9391E0909321028823B9F0C091B800AC
:101EB000D091BA008091BC008A7B8093BC0060E026
:101EC00082E10E94C30560E083E10E94C3050E9495
:101ED000310FD093BA00C093B800DF91CF9108952D
:101EE000E091920280919102E81730F4F0E0E45022
:101EF000FE4F808190E008958FEF9FEF08959091BD
:101F00009202809191022FEF3FEF981748F4E92F4A
:101F1000F0E0E450FE4F208130E09F5F909392020A
:101F2000C90108958091910290919202891B990BA9
:101F30000895CF92DF92EF92FF920F931F93CF936A
:101F4000DF937C01CB018A012091A702222389F033
:101F5000EB016B01C40ED51ECC15DD0569F069914E
:101F6000D701ED91FC910190F081E02DC701099519
:101F7000F3CF642F0E940A0FC801DF91CF911F9108
:101F80000F91FF90EF90DF90CF900895CF93DF9364
:101F90001F92CDB7DEB769832091A7022223F9F003
:101FA0002091A402203258F021E030E0FC0133837C
:101FB000228390E080E00F90DF91CF91089580918F
:101FC000A502E82FF0E0E452FE4F998190838F5FE5
:101FD0008093A5028093A40281E090E0ECCF61E0C1
:101FE000CE0101960E940A0FF7CFCF92DF92EF92B7
:101FF000FF920F931F93CF93DF93D091A40281E0C0
:10200000D13208F09CC0C091A6020E942D066B013F
:102010007C018091660281116CC082E0809366022F
:1020200081E0809368028FEF8093650210928A02AC
:10203000D0938902ACEDB1E0E9E6F2E080E0D8139C
:102040008DC010928B0280918B02CC0FC82BC09355
:102050008B0280916702813009F084C01092670280
:102060000E942D066B017C0180918B028093BB0046
:1020700080911D0290911E02A0911F02B09120023A
:10208000892B8A2B8B2BA1F00E942D0600911D021B
:1020900010911E0220911F02309120026C197D09BF
:1020A0008E099F09061717072807390708F442C049
:1020B0008091BC0083FDD8CF85EC8093BC000E944A
:1020C0002D066B017C0180916602823009F44CC0C0
:1020D000809165028F3F09F469C08091650280326A
:1020E00009F466C080916502803309F463C084E01E
:1020F00026C080911D0290911E02A0911F02B091F6
:102100002002892B8A2B8B2B09F483CF0E942D066A
:1021100000911D0210911E0220911F023091200299
:102120006C197D098E099F090617170728073907BB
:1021300008F06FCF80911C020E944F0F85E0109233
:10214000A5021092A4021092A702DF91CF911F91D5
:102150000F91FF90EF90DF90CF9008959D91919314
:102160008F5F6DCF85EEA9CF80911D0290911E02E9
:10217000A0911F02B0912002892B8A2B8B2B09F48E
:10218000A2CF0E942D0600911D0210911E022091E7
:102190001F02309120026C197D098E099F090617D4
:1021A00017072807390708F08ECFC4CF80E0C7CFC4
:1021B00082E0C5CF83E0C3CFEF92FF920F931F93CE
:1021C000CF93DF937C01C62F8091D1029091D202F0
:1021D000009709F459C02091D50231E03093A7024D
:1021E0002093A6021092A5021092A402DC01ED91A8
:1021F000FC910190F081E02D60E009958701EE24CB
:10220000E394F12CD1E0C1508091D1029091D2029F
:10221000CF3F91F1B0E2EB16F104D8F00E94F50F38
:102220008091D1029091D2022091D502D093A70241
:102230002093A6021092A5021092A402DC01ED9157
:10224000FC910190F081E02D60E00995EE24E3948B
:10225000F12C8091D1029091D202F8016491DC01BD
:10226000ED91FC910190F081E02D0995BFEFEB1A03
:10227000FB0A0F5F1F4FC7CFDF91CF911F910F91C7
:10228000FF90EF900C94F50FE091E102F091E202E3
:1022900090818091E7028095892380838701C150D6
:1022A00008F438C0F80184912091CF023091D00217
:1022B000232B29F00E940A090F5F1F4FF0CF28E05F
:1022C00030E040E8E091DD02F091DE029091E5021D
:1022D000582F5423D9F05081952B9083E091DF0241
:1022E000F091E00290815091E602952B9083E0916D
:1022F000DF02F091E00250819091E60290959523E3
:102300009083469521503109E9F6D6CF50819095BA
:102310009523E3CFDF91CF911F910F91FF90EF9025
:1023200008951F93CF93DF93EC018D8D9E8D0097C1
:1023300021F1162F29A131E03093A7022093A602A4
:102340001092A5021092A402DC01ED91FC91019083
:10235000F081E02D60E009958D8D9E8DDC01ED9181
:10236000FC910190F081E02D612F09958D8D9E8D5E
:10237000DF91CF911F910C94F50FADA5BEA59C9157
:102380008BA9809589238C938B8D9C8D892B31F023
:10239000862FDF91CF911F910C940A0928E030E03D
:1023A00080E8A9A5BAA599A9462F4823C1F04C9168
:1023B000942B9C93ABA5BCA59C914AA9942B9C9370
:1023C000ABA5BCA54C919AA9909594239C93869516
:1023D0002150310931F7DF91CF911F9108954C9130
:1023E00090959423E6CFDF92EF92FF920F931F9385
:1023F000CF93DF938091D1029091D202892B09F47F
:10240000A5C02091E9023091EA024091EB0250917F
:10241000EC0260E074E284EF90E00E94581B2051CF
:1024200031094109510956954795379527952093CC
:10243000B80064E084E89AE00E94DC108091B80261
:102440009091B9028034910509F097C060E284EB65
:1024500092E00E9491116091B802615E84EB92E07B
:102460000E9491112091BA023091BB02C9010796D6
:1024700097FD079633E0959587953A95E1F720917A
:10248000B8023091B902829F8001839F100D929F04
:10249000100D1124C091D302D091D4028091D102A9
:1024A0009091D2020C0F1D1F009709F498C0209143
:1024B000D50231E03093A7022093A6021092A50224
:1024C0001092A402DC01ED91FC910190F081E02DCD
:1024D00060E40995EE24E394F12CDD24D3948091FB
:1024E000D1029091D2020C171D0709F44FC0B0E23F
:1024F000EB16F104D8F00E94F50F8091D102909173
:10250000D2022091D502D092A7022093A602109267
:10251000A5021092A402DC01ED91FC910190F081E2
:10252000E02D60E40995EE24E394F12C8091D10232
:102530009091D2026991DC01ED91FC910190F081C2
:10254000E02D0995BFEFEB1AFB0AC9CF8091CF02AE
:102550009091D002892B31F08091F2029091F30298
:102560000E941109E091E302F091E40290818091D0
:10257000E8028095892380835CCF60E084EB92E061
:102580000E9491116091B802615068CF0E94F50FCE
:102590008091D1029091D202892B09F461C02091DF
:1025A000ED023091EE024091EF025091F00260E0B6
:1025B00074E284EF90E00E94581B205131094109D8
:1025C000510956954795379527952093B800DF9187
:1025D000CF911F910F91FF90EF90DF900895E091C0
:1025E000E102F091E20280819091E702892B8083E1
:1025F0000C171D0769F289912091CF023091D0020A
:10260000232B19F00E940A09F3CF28E030E040E8BC
:10261000E091DD02F091DE029091E502582F542303
:10262000D9F05081952B9083E091DF02F091E00288
:1026300090815091E602952B9083E091DF02F0911A
:10264000E00250819091E602909595239083469503
:1026500021503109E9F6CCCF508190959523E3CFF5
:10266000E091E302F091E40280819091E802892BED
:102670008083ADCF1F93CF93DF93EC01162F8D8D09
:102680009E8D892BB1F12DA93EA94FA958AD60E0CF
:1026900074E284EF90E00E94581B205131094109F7
:1026A000510956954795379527952093B80066EAC6
:1026B000111167EACE010E9491118D8D9E8D892B9B
:1026C00041F129AD3AAD4BAD5CAD60E074E284EF11
:1026D00090E00E94581B205131094109510956953B
:1026E0004795379527952093B800DF91CF911F919B
:1026F00008958B8D9C8D892B21F08EAD9FAD0E940E
:102700001109EFA5F8A990818CA980958923808370
:10271000CECFEFA5F8A980819CA9892B8083E5CF36
:1027200090E080E008958F929F92AF92BF920F93B6
:102730001F93CF93DF93CDB7DEB7A1970FB6F89471
:10274000DEBF0FBECDBF19A2423008F44AE08E01B1
:102750000F5D1F4F842E912CB12CA12CA50194014B
:102760000E94581BE62FB901CA01EA3044F5E05D2A
:10277000D801EE938D01232B242B252B79F790E0A4
:1027800080E0109769F0FD0101900020E9F7319792
:10279000AF014A1B5B0BBD0184EB92E00E948606F1
:1027A000A1960FB6F894DEBF0FBECDBFDF91CF91DB
:1027B0001F910F91BF90AF909F908F900895E95C0B
:1027C000D7CFBC01990F880B990B4AE00C94931357
:1027D000FC0101900020E9F73197AF01481B590B2C
:1027E000BC0184EB92E00C9486062091BA023091F1
:1027F000BB02C901079697FD079623E0959587953B
:102800002A95E1F72091B8023091B902829FA00188
:10281000839F500D929F500D112470E060E08091D5
:10282000D3029091D4020C94AA1C1F93CF93DF93F0
:102830000E94F513C4EBD2E081E08C8B8D8B81E09C
:1028400090E09B8B8A8B998B888B1D861C861F86BC
:102850001E8680E991E00E94E8131D861C8688E0B0
:1028600090E09F878E878EE991E00E94E813809127
:10287000930290E001960E94E11387EA91E00E94A2
:10288000E8138091940290E001960E94E1131D8666
:102890001C8680E190E09F878E878DEA91E00E9400
:1028A000E813E09193021CE01E9FF0011124E65F03
:1028B000FE4F60817181828193814AE00E9493136F
:1028C00084EB91E00E94E8131D861C8688E190E06D
:1028D0009F878E8787EB91E00E94E813E091930237
:1028E0001E9FF0011124E65FFE4F64817581868191
:1028F00097814AE00E9493138EEB91E00E94E813C7
:10290000E09193021E9FF0011124E65FFE4F608567
:102910007185828593854AE00E949313DF91CF9160
:102920001F910C94F3110E94A51C85ED8093BC00AF
:1029300080911D0290911E02A0911F02B091200271
:102940000796A11DB11D23E0B695A795979587958C
:102950002A95D1F72091BC0024FD03C01092660295
:10296000089540911D0250911E0260911F027091C6
:102970002002452B462B472B69F30097A105B10593
:1029800041F02AE22A95F1F700C00197A109B109A7
:10299000E1CF80911C020C944F0F1F920F920FB643
:1029A0000F9211242F933F938F939F93AF93BF93D5
:1029B00080919C0290919D02A0919E02B0919F02F5
:1029C00030919B0223E0230F2D3758F50196A11D6E
:1029D000B11D20939B0280939C0290939D02A09333
:1029E0009E02B0939F028091A0029091A102A091BB
:1029F000A202B091A3020196A11DB11D8093A00275
:102A00009093A102A093A202B093A302BF91AF91B1
:102A10009F918F913F912F910F900FBE0F901F901C
:102A2000189526E8230F0296A11DB11DD2CF1F9243
:102A30000F920FB60F9211242F933F934F935F93F2
:102A40006F937F938F939F93AF93BF93EF93FF9376
:102A50008091B900887F803609F44AC0F0F5883249
:102A600009F4A7C018F5803109F49BC0B8F4882395
:102A700009F4F9C0883009F494C0FF91EF91BF9137
:102A8000AF919F918F917F916F915F914F913F9106
:102A90002F910F900FBE0F901F901895883109F459
:102AA00088C0803251F78093650214C0803409F4E5
:102AB0009DC040F48033B9F38833F9F68093650202
:102AC00085ECB0C0803509F485C0883509F496C01E
:102AD000883499F60E949514D0CF883909F48CC0B7
:102AE00038F5883729F050F4883611F0803729F608
:102AF00083E0809366021092640257C0883809F41C
:102B00007BC0803919F0803809F0B7CF809164021A
:102B1000803208F071C0E091640281E08E0F8093F2
:102B200064028091BB00F0E0EC5BFD4F80833DC010
:102B3000803B39F0E0F4803A09F479C0883A09F032
:102B40009CCF84E08093660210924302109242026E
:102B5000E0918F02F09190020995809142028111DB
:102B60000FC081E0809342021092220209C0803C93
:102B700009F4A6CF883C09F4A3CF883B09F07DCFA8
:102B8000E091430281E08E0F80934302F0E0EE5D1E
:102B9000FD4F80818093BB0090914302809142025F
:102BA00029C080918B028093BB0085EC8093BC0090
:102BB00064CF90918A0280918902981758F5E0912C
:102BC0008A0281E08E0F80938A02F0E0E759FD4F80
:102BD0008081E9CFE0918A0281E08E0F80938A02A2
:102BE0008091BB00F0E0E759FD4F808390918A020D
:102BF000809189029817C8F285E8D8CFE0918A02BF
:102C000081E08E0F80938A028091BB00F0E0E7594B
:102C1000FD4F80838091680281115CCF81E08093B9
:102C2000670284EA8093BC001092660226CF85EC8E
:102C30008093BC001092660280916402803230F46E
:102C4000E0916402F0E0EC5BFD4F10826091640261
:102C500070E0E0918D02F0918E0284E492E009959B
:102C6000109264020ACF1092650234CFA8EAB2E053
:102C700013961C921E92129748EE53E060E070E0AB
:102C800014964D935D936D937C93179786E591E031
:102C900011969C938E93E4EBF2E01382128220E86B
:102CA00030E03583248380E290E097838683318708
:102CB000208793878287168A15861486178616863C
:102CC00081E0858B848B2FEF3FEF338B228B318B11
:102CD000208B878B108E128E118E88E691E0918367
:102CE0008083148E138EB68FA58F10A2178E8FEF50
:102CF00084A385A386A387A380A780E89AE1A6E0A2
:102D0000B0E085AB96ABA7ABB0AF80EA96E8A1E0A8
:102D1000B0E081AF92AFA3AFB4AF80E586AF17AE9E
:102D20000895CF93DF93CDB7DEB766970FB6F894CB
:102D3000DEBF0FBECDBF789484B5826084BD84B5FC
:102D4000816084BD85B5826085BD85B5816085BDA6
:102D500080916E00816080936E001092810080915E
:102D600081008260809381008091810081608093E6
:102D70008100809180008160809380008091B1000B
:102D800084608093B1008091B00081608093B00036
:102D900080917A00846080937A0080917A008260CA
:102DA00080937A0080917A00816080937A0080918C
:102DB0007A00806880937A001092C10060E082E01F
:102DC0000E94F10561E083E00E94F10562E084E089
:102DD0000E94F10562E085E00E94F10562E086E074
:102DE0000E94F10561E083E00E94C30590E080E06D
:102DF0000E94421B80939402863010F0109294023D
:102E000080919402809393028091D3029091D40296
:102E1000892B31F52091BA023091BB02C901079686
:102E200097FD0796B3E095958795BA95E1F72091C0
:102E3000B8023091B902AC01429FC001439F900D8E
:102E4000529F900D11240E94801B9093D402809376
:102E5000D302892B29F461E083E00E94C305FBCFF4
:102E60000E94F5132091BA023091BB028091B80202
:102E70009091B902B901213231050CF44DC2605470
:102E8000710977FF02C06F5F7F4F75956795825517
:102E9000910997FD019600E410E022E530E04AE652
:102EA00057E0959587950E94FB0D82E08093D602AE
:102EB0008091D1029091D202892B09F440C28CE317
:102EC0008093D50210929202109291021092A50264
:102ED0001092A4020E94310F84E896E09093900231
:102EE00080938F0285E896E090938E0280938D0206
:102EF0008091DC0287FD1EC061E00E94F10561E067
:102F00008091DC020E94C30561E070E080E090E007
:102F10000E94520660E08091DC020E94C3056AE0D4
:102F200070E080E090E00E94520661E08091DC0257
:102F30000E94C3058091D1029091D202892B09F49D
:102F4000BDC22091E9023091EA024091EB0250911A
:102F5000EC0260E074E284EF90E00E94581B205184
:102F60003109410951095695479537952795209381
:102F7000B80064E086E895E00E94DC106091BA0237
:102F8000615084EB92E00E94911164E082E895E048
:102F90000E94DC108091D60260E1813009F064E18A
:102FA00084EB92E00E94911164E08EE795E00E942C
:102FB000DC108FE88093F1028091B8029091B90201
:102FC0008038910509F091C28091BA029091BB02BC
:102FD0008034910509F099C28091D602813009F0C0
:102FE000A7C28FE98093F10212E16AED84EB92E0CF
:102FF0000E949111612F84EB92E00E94911161E88F
:1030000084EB92E00E9491116091F10284EB92E0D6
:103010000E94911169ED84EB92E00E9491118091E0
:10302000D60262E2813009F061EF84EB92E00E9407
:10303000911166E088E795E00E94DC108091D10252
:103040009091D202892B09F475C22091ED02309142
:10305000EE024091EF025091F00260E074E284EFE2
:1030600090E00E94581B20513109410951095695A1
:103070004795379527952093B8000E94F51382E075
:103080008093C8028093C90281E090E09093C702C8
:103090008093C6029093C5028093C4028AE090E0B8
:1030A0009093C1028093C00208E010E01093C30225
:1030B0000093C20280EC91E00E94E8130E94F31199
:1030C00064EF71E080E090E00E9452060E94F513E8
:1030D00084E090E09093C1028093C0021093C302F9
:1030E0000093C20286E991E00E94E8130E94F31166
:1030F00064EF71E080E090E00E9452060E94F513B8
:1031000081E08093C8028093C90226E1E6ECF1E0F9
:10311000CE010196DC0101900D922A95E1F7FC01A8
:1031200001900020E9F73197E81BF90B26E02E9F6C
:10313000A0012F9F500D112420E830E0241B350BF7
:1031400037FF02C02F5F3F4F3595279537FF02C0ED
:1031500030E020E03093C1022093C0021092C302FD
:103160001092C2020E94E813EE24E394F12C0AE0CC
:1031700010E020E830E04FE050E070E060E084EBE9
:1031800092E00E94210CD12CC12CF12CE12C08E002
:1031900010E02EE730E040E150E061E070E084EBC9
:1031A00092E00E94150DEE24E394F12C06E010E06D
:1031B000960141E150E062E070E084EB92E00E9411
:1031C000150D0AE010E020E830E04FE050E070E03C
:1031D00060E084EB92E00E94210C0E94F3116EE10A
:1031E00070E080E090E00E94520652E0C50ED11CD3
:1031F0006EE7C616D10449F66CE271E080E090E01B
:103200000E9452060E9415140E9415148CE0782E1C
:1032100090E0C92E90E0D92E6624639422E0A22E7D
:10322000B12C84E00E949A054C0122242394892B1E
:1032300009F4212C85E00E949A057C013324339403
:10324000892B09F4312C86E00E949A058C014424D4
:103250004394892B09F4412C892871F4809102014F
:10326000882351F080919302853008F06DC18F5F03
:10327000809393020E941514EF2871F4809101014C
:10328000882351F080919302882309F460C1815012
:10329000809393020E941514012BA9F480910001E0
:1032A000882389F0109193021093940290E080E0BB
:1032B0000E94421B181729F0612F90E080E00E94C5
:1032C0004A1B0E9415142092020130920101409283
:1032D000000182E00E949A054FB7F89400919C0289
:1032E00010919D0220919E0230919F024FBF81302C
:1032F000910509F42EC110929A021092990261E090
:1033000083E00E94C30560920301C114D10409F453
:1033100088CF0E94000085CF6052710977FF02C0FC
:103320006F5F7F4F759567958357910997FD01965C
:1033300000E210E023E730E04AE855E0B2CD61E07A
:103340008091DA020E94F10561E08091DB020E9427
:10335000F1058091DA02082E000C990BFC01E85B64
:10336000F54FE491F0E0EE0FFF1FEC5CF54F259177
:1033700034913093E2022093E102FC01E45AF54FCC
:10338000E491E093E7028091DB02082E000C990B98
:10339000FC01E85BF54FE491F0E0EE0FFF1FEC5C01
:1033A000F54FA591B491B093E402A093E302FC0120
:1033B000E45AF54FE491E093E8028C91E82BEC930A
:1033C0008091CF029091D002892B09F434C01FB7AD
:1033D000F89480918C02811127C0E2E5FAE0849193
:1033E000E6E6FAE09491E82FF0E0EE0FFF1FE65DCD
:1033F000F54FA591B491EC91E92321F461E08AE0C5
:103400000E94C30561E08AE00E94F1058CB58061ED
:103410008CBD8CB580648CBD61E08DE00E94F105AF
:1034200061E08BE00E94F10580918C028F5F8093B8
:103430008C021FBF5DCD61E08091D8020E94F10532
:1034400061E08091D9020E94F1058091D802082E96
:10345000000C990BFC01E85BF54FE491F0E0EE0FF6
:10346000FF1FEC5CF54F259134913093DE022093E1
:10347000DD02FC01E45AF54FE491E093E50280910E
:10348000D902082E000C990BFC01E85BF54FE49182
:10349000F0E0EE0FFF1FEC5CF54FA591B491B093F7
:1034A000E002A093DF02FC01E45AF54FE491E093BF
:1034B000E6028C91E095E823EC931ACD8091CF023F
:1034C0009091D002892B31F08091F2029091F30219
:1034D0000E941109E091E302F091E4029081809151
:1034E000E80280958923808344CD8036910589F454
:1034F0008091BA029091BB02409739F48091D60234
:10350000813029F480E18093F10212E06ECD8FEAE0
:10351000FACF80349105C9F78091BA029091BB022D
:10352000809799F78091D602813011F480E15ACDCD
:103530008FEC58CDE091E302F091E402808190910C
:10354000E802892B808399CD1092930293CE85E077
:103550009FCE4091990250919A024115510569F40C
:1035600090939A0280939902009395021093960289
:103570002093970230939802C2CE4130510591F5C5
:103580008091950290919602A0919702B091980235
:10359000B901A801481B590B6A0B7B0BE0919402FF
:1035A0007E9EF0011124E65FFE4F80819181A28111
:1035B000B381481759076A077B0708F4A6CEB09273
:1035C0009A02A0929902009395021093960220937A
:1035D00097023093980260E083E00E94C305109246
:1035E000030193CE4230510509F08FCEF0900301D4
:1035F0008091940290E0789EF001799EF00D112464
:10360000E65FFE4FFF2051F184819581A681B7814D
:103610002090950230909602409097025090980228
:10362000B901A80142195309640975091A012B014E
:10363000281639064A065B0608F467CE0093950201
:1036400010939602209397023093980261E06F25C1
:103650006093030183E00E94C30557CE8085918566
:10366000A285B385D5CF88E691E09093B50280938B
:10367000B4028091D3029091D402009711F00C947F
:103680001C1C0895F999FECF92BD81BDF89A992727
:1036900080B50895262FF999FECF1FBA92BD81BD3E
:1036A00020BD0FB6F894FA9AF99A0FBE01960895C4
:1036B000A1E21A2EAA1BBB1BFD010DC0AA1FBB1F36
:1036C000EE1FFF1FA217B307E407F50720F0A21BA8
:1036D000B30BE40BF50B661F771F881F991F1A9415
:1036E00069F760957095809590959B01AC01BD013F
:1036F000CF010895EE0FFF1F0590F491E02D09947E
:103700000F931F93CF93DF938230910510F482E0E3
:1037100090E0E091F602F091F70230E020E0B0E0B6
:10372000A0E0309799F42115310509F44AC0281B0F
:10373000390B24303105D8F58A819B8161157105DB
:1037400089F1FB0193838283FE0111C04081518185
:103750000281138148175907E0F04817590799F477
:10376000109761F012960C93129713961C93329651
:10377000CF01DF91CF911F910F9108950093F60231
:103780001093F702F4CF2115310551F0421753077A
:1037900038F0A901DB019A01BD01DF01F801C1CFB9
:1037A000EF01F9CF9093F7028093F602CDCFFE019F
:1037B000E20FF31F819391932250310939832883BB
:1037C000D7CF2091F4023091F502232B41F42091C0
:1037D0000601309107013093F5022093F402209105
:1037E0000401309105012115310541F42DB73EB793
:1037F0004091080150910901241B350BE091F4021E
:10380000F091F502E217F307A0F42E1B3F0B2817E7
:10381000390778F0AC014E5F5F4F2417350748F049
:103820004E0F5F1F5093F5024093F40281939193E2
:103830009FCFF0E0E0E09CCFCF93DF930097E9F0DB
:10384000FC01329713821282A091F602B091F70226
:10385000ED0130E020E01097A1F420813181820F4A
:10386000931F2091F4023091F5022817390709F0CF
:1038700061C0F093F502E093F402DF91CF910895D7
:10388000EA01CE17DF07E8F54A815B819E01411509
:103890005105B1F7E901FB83EA8349915991C40FBE
:1038A000D51FEC17FD0761F4808191810296840F8A
:1038B000951FE90199838883828193819B838A8301
:1038C000F0E0E0E012968D919C9113970097B9F586
:1038D0002D913C911197CD010296820F931F20915B
:1038E000F4023091F5022817390739F6309751F56F
:1038F0001092F7021092F602B093F502A093F40230
:10390000BCCFD383C28340815181840F951FC817D8
:10391000D90761F44E5F5F4F88819981480F591F25
:10392000518340838A819B81938382832115310552
:1039300009F0B0CFF093F702E093F6029ECFFD01BD
:10394000DC01C0CF13821282D7CF81E090E0F894DF
:103950000C94B11CDC0101C06D9341505040E0F764
:10396000089515E0C5E4D5E004C0FE010E947A1B6D
:0C3970002196C634D107C9F7F894FFCFA8
:10397C00010101010000F8028000DC050000640078
:10398C00000064000000E803000064000000640014
:10399C000000D00700006400000064000000DC059B
:1039AC0000004B0000004B000000DC050000320062
:1039BC00000064000000F4010000640000006400DA
:1039CC00000000000000C60F990F90137005920FB5
:1039DC007F0F700F000000004F0B86069013090F2D
:1039EC005A087005F40DCC0DE80DDC0D5C0E70055D
:1039FC0015093A13CA071308150DF80C800C210C85
:103A0C004252414B4520464C415348455200564981
:103A1C004557494E473A00204143543A0044454CDF
:103A2C0041593A006D7300464C4153483A002F00FF
:103A3C004252414B4500425245414B494E4720535F
:0C3A4C004F4D455448494E472E2E2E0089
:00000001FF
